{
  "contractName": "COO",
  "abi": [
    {
      "constant": true,
      "inputs": [
        {
          "name": "interfaceId",
          "type": "bytes4"
        }
      ],
      "name": "supportsInterface",
      "outputs": [
        {
          "name": "",
          "type": "bool"
        }
      ],
      "payable": false,
      "stateMutability": "view",
      "type": "function",
      "signature": "0x01ffc9a7"
    },
    {
      "constant": true,
      "inputs": [],
      "name": "name",
      "outputs": [
        {
          "name": "",
          "type": "string"
        }
      ],
      "payable": false,
      "stateMutability": "view",
      "type": "function",
      "signature": "0x06fdde03"
    },
    {
      "constant": true,
      "inputs": [
        {
          "name": "tokenId",
          "type": "uint256"
        }
      ],
      "name": "getApproved",
      "outputs": [
        {
          "name": "",
          "type": "address"
        }
      ],
      "payable": false,
      "stateMutability": "view",
      "type": "function",
      "signature": "0x081812fc"
    },
    {
      "constant": false,
      "inputs": [
        {
          "name": "to",
          "type": "address"
        },
        {
          "name": "tokenId",
          "type": "uint256"
        }
      ],
      "name": "approve",
      "outputs": [],
      "payable": false,
      "stateMutability": "nonpayable",
      "type": "function",
      "signature": "0x095ea7b3"
    },
    {
      "constant": true,
      "inputs": [],
      "name": "totalSupply",
      "outputs": [
        {
          "name": "",
          "type": "uint256"
        }
      ],
      "payable": false,
      "stateMutability": "view",
      "type": "function",
      "signature": "0x18160ddd"
    },
    {
      "constant": false,
      "inputs": [
        {
          "name": "from",
          "type": "address"
        },
        {
          "name": "to",
          "type": "address"
        },
        {
          "name": "tokenId",
          "type": "uint256"
        }
      ],
      "name": "transferFrom",
      "outputs": [],
      "payable": false,
      "stateMutability": "nonpayable",
      "type": "function",
      "signature": "0x23b872dd"
    },
    {
      "constant": true,
      "inputs": [
        {
          "name": "owner",
          "type": "address"
        },
        {
          "name": "index",
          "type": "uint256"
        }
      ],
      "name": "tokenOfOwnerByIndex",
      "outputs": [
        {
          "name": "",
          "type": "uint256"
        }
      ],
      "payable": false,
      "stateMutability": "view",
      "type": "function",
      "signature": "0x2f745c59"
    },
    {
      "constant": false,
      "inputs": [
        {
          "name": "from",
          "type": "address"
        },
        {
          "name": "to",
          "type": "address"
        },
        {
          "name": "tokenId",
          "type": "uint256"
        }
      ],
      "name": "safeTransferFrom",
      "outputs": [],
      "payable": false,
      "stateMutability": "nonpayable",
      "type": "function",
      "signature": "0x42842e0e"
    },
    {
      "constant": true,
      "inputs": [
        {
          "name": "index",
          "type": "uint256"
        }
      ],
      "name": "tokenByIndex",
      "outputs": [
        {
          "name": "",
          "type": "uint256"
        }
      ],
      "payable": false,
      "stateMutability": "view",
      "type": "function",
      "signature": "0x4f6ccce7"
    },
    {
      "constant": true,
      "inputs": [
        {
          "name": "tokenId",
          "type": "uint256"
        }
      ],
      "name": "ownerOf",
      "outputs": [
        {
          "name": "",
          "type": "address"
        }
      ],
      "payable": false,
      "stateMutability": "view",
      "type": "function",
      "signature": "0x6352211e"
    },
    {
      "constant": true,
      "inputs": [
        {
          "name": "owner",
          "type": "address"
        }
      ],
      "name": "balanceOf",
      "outputs": [
        {
          "name": "",
          "type": "uint256"
        }
      ],
      "payable": false,
      "stateMutability": "view",
      "type": "function",
      "signature": "0x70a08231"
    },
    {
      "constant": false,
      "inputs": [],
      "name": "renounceOwnership",
      "outputs": [],
      "payable": false,
      "stateMutability": "nonpayable",
      "type": "function",
      "signature": "0x715018a6"
    },
    {
      "constant": true,
      "inputs": [],
      "name": "owner",
      "outputs": [
        {
          "name": "",
          "type": "address"
        }
      ],
      "payable": false,
      "stateMutability": "view",
      "type": "function",
      "signature": "0x8da5cb5b"
    },
    {
      "constant": true,
      "inputs": [],
      "name": "isOwner",
      "outputs": [
        {
          "name": "",
          "type": "bool"
        }
      ],
      "payable": false,
      "stateMutability": "view",
      "type": "function",
      "signature": "0x8f32d59b"
    },
    {
      "constant": true,
      "inputs": [],
      "name": "symbol",
      "outputs": [
        {
          "name": "",
          "type": "string"
        }
      ],
      "payable": false,
      "stateMutability": "view",
      "type": "function",
      "signature": "0x95d89b41"
    },
    {
      "constant": false,
      "inputs": [
        {
          "name": "to",
          "type": "address"
        },
        {
          "name": "approved",
          "type": "bool"
        }
      ],
      "name": "setApprovalForAll",
      "outputs": [],
      "payable": false,
      "stateMutability": "nonpayable",
      "type": "function",
      "signature": "0xa22cb465"
    },
    {
      "constant": false,
      "inputs": [
        {
          "name": "from",
          "type": "address"
        },
        {
          "name": "to",
          "type": "address"
        },
        {
          "name": "tokenId",
          "type": "uint256"
        },
        {
          "name": "_data",
          "type": "bytes"
        }
      ],
      "name": "safeTransferFrom",
      "outputs": [],
      "payable": false,
      "stateMutability": "nonpayable",
      "type": "function",
      "signature": "0xb88d4fde"
    },
    {
      "constant": true,
      "inputs": [
        {
          "name": "tokenId",
          "type": "uint256"
        }
      ],
      "name": "tokenURI",
      "outputs": [
        {
          "name": "",
          "type": "string"
        }
      ],
      "payable": false,
      "stateMutability": "view",
      "type": "function",
      "signature": "0xc87b56dd"
    },
    {
      "constant": true,
      "inputs": [
        {
          "name": "owner",
          "type": "address"
        },
        {
          "name": "operator",
          "type": "address"
        }
      ],
      "name": "isApprovedForAll",
      "outputs": [
        {
          "name": "",
          "type": "bool"
        }
      ],
      "payable": false,
      "stateMutability": "view",
      "type": "function",
      "signature": "0xe985e9c5"
    },
    {
      "constant": false,
      "inputs": [
        {
          "name": "newOwner",
          "type": "address"
        }
      ],
      "name": "transferOwnership",
      "outputs": [],
      "payable": false,
      "stateMutability": "nonpayable",
      "type": "function",
      "signature": "0xf2fde38b"
    },
    {
      "inputs": [],
      "payable": false,
      "stateMutability": "nonpayable",
      "type": "constructor",
      "signature": "constructor"
    },
    {
      "anonymous": false,
      "inputs": [
        {
          "indexed": true,
          "name": "previousOwner",
          "type": "address"
        },
        {
          "indexed": true,
          "name": "newOwner",
          "type": "address"
        }
      ],
      "name": "OwnershipTransferred",
      "type": "event",
      "signature": "0x8be0079c531659141344cd1fd0a4f28419497f9722a3daafe3b4186f6b6457e0"
    },
    {
      "anonymous": false,
      "inputs": [
        {
          "indexed": true,
          "name": "from",
          "type": "address"
        },
        {
          "indexed": true,
          "name": "to",
          "type": "address"
        },
        {
          "indexed": true,
          "name": "tokenId",
          "type": "uint256"
        }
      ],
      "name": "Transfer",
      "type": "event",
      "signature": "0xddf252ad1be2c89b69c2b068fc378daa952ba7f163c4a11628f55a4df523b3ef"
    },
    {
      "anonymous": false,
      "inputs": [
        {
          "indexed": true,
          "name": "owner",
          "type": "address"
        },
        {
          "indexed": true,
          "name": "approved",
          "type": "address"
        },
        {
          "indexed": true,
          "name": "tokenId",
          "type": "uint256"
        }
      ],
      "name": "Approval",
      "type": "event",
      "signature": "0x8c5be1e5ebec7d5bd14f71427d1e84f3dd0314c0f7b2291e5b200ac8c7c3b925"
    },
    {
      "anonymous": false,
      "inputs": [
        {
          "indexed": true,
          "name": "owner",
          "type": "address"
        },
        {
          "indexed": true,
          "name": "operator",
          "type": "address"
        },
        {
          "indexed": false,
          "name": "approved",
          "type": "bool"
        }
      ],
      "name": "ApprovalForAll",
      "type": "event",
      "signature": "0x17307eab39ab6107e8899845ad3d59bd9653f200f220920489ca2b5937696c31"
    },
    {
      "constant": false,
      "inputs": [
        {
          "components": [
            {
              "name": "assetId",
              "type": "uint256"
            },
            {
              "name": "name",
              "type": "string"
            },
            {
              "name": "label",
              "type": "string"
            },
            {
              "name": "price",
              "type": "uint256"
            },
            {
              "name": "timestamp",
              "type": "uint256"
            },
            {
              "name": "factomEntryHash",
              "type": "string"
            },
            {
              "name": "anotherEncryptionKey",
              "type": "string"
            }
          ],
          "name": "newCertificate",
          "type": "tuple"
        }
      ],
      "name": "createCertificate",
      "outputs": [],
      "payable": false,
      "stateMutability": "nonpayable",
      "type": "function",
      "signature": "0x1c268fdf"
    },
    {
      "constant": false,
      "inputs": [
        {
          "name": "certificateId",
          "type": "uint256"
        },
        {
          "name": "name",
          "type": "string"
        },
        {
          "name": "label",
          "type": "string"
        },
        {
          "name": "price",
          "type": "uint256"
        },
        {
          "name": "factomEntryHash",
          "type": "string"
        },
        {
          "name": "anotherEncryptionKey",
          "type": "string"
        }
      ],
      "name": "updateCertificate",
      "outputs": [],
      "payable": false,
      "stateMutability": "nonpayable",
      "type": "function",
      "signature": "0xc89d2b17"
    },
    {
      "constant": true,
      "inputs": [
        {
          "name": "certificateId",
          "type": "uint256"
        }
      ],
      "name": "getCertificate",
      "outputs": [
        {
          "components": [
            {
              "name": "assetId",
              "type": "uint256"
            },
            {
              "name": "name",
              "type": "string"
            },
            {
              "name": "label",
              "type": "string"
            },
            {
              "name": "price",
              "type": "uint256"
            },
            {
              "name": "timestamp",
              "type": "uint256"
            },
            {
              "name": "factomEntryHash",
              "type": "string"
            },
            {
              "name": "anotherEncryptionKey",
              "type": "string"
            }
          ],
          "name": "",
          "type": "tuple"
        }
      ],
      "payable": false,
      "stateMutability": "view",
      "type": "function",
      "signature": "0x51640fee"
    },
    {
      "constant": true,
      "inputs": [
        {
          "name": "certificateId",
          "type": "uint256"
        }
      ],
      "name": "getCertificateData",
      "outputs": [
        {
          "name": "",
          "type": "string[]"
        }
      ],
      "payable": false,
      "stateMutability": "view",
      "type": "function",
      "signature": "0x31494bbb"
    },
    {
      "constant": false,
      "inputs": [
        {
          "name": "certificateId",
          "type": "uint256"
        },
        {
          "name": "data",
          "type": "string[]"
        }
      ],
      "name": "updateCertificateData",
      "outputs": [],
      "payable": false,
      "stateMutability": "nonpayable",
      "type": "function",
      "signature": "0x68378017"
    }
  ],
  "bytecode": "0x60806040523480156200001157600080fd5b50604080518082018252601881527f4365727469666963617465204f66204f776e65727368697000000000000000006020808301919091528251808401909352600383527f434f4f000000000000000000000000000000000000000000000000000000000090830152908181620000b17f01ffc9a700000000000000000000000000000000000000000000000000000000640100000000620001cf810204565b620000e57f80ac58cd00000000000000000000000000000000000000000000000000000000640100000000620001cf810204565b620001197f780e9d6300000000000000000000000000000000000000000000000000000000640100000000620001cf810204565b81516200012e9060099060208501906200023c565b5080516200014490600a9060208401906200023c565b50620001797f5b5e139f00000000000000000000000000000000000000000000000000000000640100000000620001cf810204565b5050600c8054600160a060020a031916331790819055604051600160a060020a03919091169250600091507f8be0079c531659141344cd1fd0a4f28419497f9722a3daafe3b4186f6b6457e0908290a3620002e1565b7fffffffff000000000000000000000000000000000000000000000000000000008082161415620001ff57600080fd5b7fffffffff00000000000000000000000000000000000000000000000000000000166000908152602081905260409020805460ff19166001179055565b828054600181600116156101000203166002900490600052602060002090601f016020900481019282601f106200027f57805160ff1916838001178555620002af565b82800160010185558215620002af579182015b82811115620002af57825182559160200191906001019062000292565b50620002bd929150620002c1565b5090565b620002de91905b80821115620002bd5760008155600101620002c8565b90565b6121fb80620002f16000396000f3006080604052600436106101485763ffffffff7c010000000000000000000000000000000000000000000000000000000060003504166301ffc9a7811461014d57806306fdde0314610183578063081812fc146101a5578063095ea7b3146101d257806318160ddd146101f45780631c268fdf1461021657806323b872dd146102365780632f745c591461025657806331494bbb1461027657806342842e0e146102a35780634f6ccce7146102c357806351640fee146102e35780636352211e14610310578063683780171461033057806370a0823114610350578063715018a6146103705780638da5cb5b146103855780638f32d59b1461039a57806395d89b41146103af578063a22cb465146103c4578063b88d4fde146103e4578063c87b56dd14610404578063c89d2b1714610424578063e985e9c514610444578063f2fde38b14610464575b600080fd5b34801561015957600080fd5b5061016d610168366004611c41565b610484565b60405161017a9190612074565b60405180910390f35b34801561018f57600080fd5b506101986104b8565b60405161017a9190612082565b3480156101b157600080fd5b506101c56101c0366004611cb2565b61054f565b60405161017a9190612011565b3480156101de57600080fd5b506101f26101ed366004611c11565b610581565b005b34801561020057600080fd5b50610209610637565b60405161017a91906120c4565b34801561022257600080fd5b506101f2610231366004611c7d565b61063d565b34801561024257600080fd5b506101f2610251366004611b1b565b610781565b34801561026257600080fd5b50610209610271366004611c11565b61080f565b34801561028257600080fd5b50610296610291366004611cb2565b61085d565b60405161017a9190612063565b3480156102af57600080fd5b506101f26102be366004611b1b565b61097a565b3480156102cf57600080fd5b506102096102de366004611cb2565b61099b565b3480156102ef57600080fd5b506103036102fe366004611cb2565b6109d0565b60405161017a91906120b3565b34801561031c57600080fd5b506101c561032b366004611cb2565b610cc2565b34801561033c57600080fd5b506101f261034b366004611cd0565b610ce6565b34801561035c57600080fd5b5061020961036b366004611ac3565b610d38565b34801561037c57600080fd5b506101f2610d6b565b34801561039157600080fd5b506101c5610dd5565b3480156103a657600080fd5b5061016d610de4565b3480156103bb57600080fd5b50610198610df5565b3480156103d057600080fd5b506101f26103df366004611be1565b610e56565b3480156103f057600080fd5b506101f26103ff366004611b68565b610edb565b34801561041057600080fd5b5061019861041f366004611cb2565b610f03565b34801561043057600080fd5b506101f261043f366004611d18565b610fb8565b34801561045057600080fd5b5061016d61045f366004611ae1565b6110ec565b34801561047057600080fd5b506101f261047f366004611ac3565b61111a565b7bffffffffffffffffffffffffffffffffffffffffffffffffffffffff191660009081526020819052604090205460ff1690565b60098054604080516020601f60026000196101006001881615020190951694909404938401819004810282018101909252828152606093909290918301828280156105445780601f1061051957610100808354040283529160200191610544565b820191906000526020600020905b81548152906001019060200180831161052757829003601f168201915b505050505090505b90565b600061055a82611139565b151561056557600080fd5b50600090815260026020526040902054600160a060020a031690565b600061058c82610cc2565b9050600160a060020a0383811690821614156105a757600080fd5b33600160a060020a03821614806105c357506105c381336110ec565b15156105ce57600080fd5b600082815260026020526040808220805473ffffffffffffffffffffffffffffffffffffffff1916600160a060020a0387811691821790925591518593918516917f8c5be1e5ebec7d5bd14f71427d1e84f3dd0314c0f7b2291e5b200ac8c7c3b92591a4505050565b60075490565b6040805160e081018252825181526020808401518183019081528484015193830193909352606080850151908301526080808501519083015260a0808501519083015260c08085015190830152600d805460018181018084556000938452855160079093027fd7b6990105719101dabeb77144f2a3385c8033acd3af97e9423a695e81ad1eb58101938455965180519497929691959194610705937fd7b6990105719101dabeb77144f2a3385c8033acd3af97e9423a695e81ad1eb60192919091019061170b565b506040820151805161072191600284019160209091019061170b565b50606082015160038201556080820151600482015560a0820151805161075191600584019160209091019061170b565b5060c0820151805161076d91600684019160209091019061170b565b50505003905061077d3382611156565b5050565b61078b33826111a5565b151561079657600080fd5b600160a060020a03821615156107ab57600080fd5b6107b58382611204565b6107bf8382611273565b6107c9828261137a565b8082600160a060020a031684600160a060020a03167fddf252ad1be2c89b69c2b068fc378daa952ba7f163c4a11628f55a4df523b3ef60405160405180910390a4505050565b600061081a83610d38565b821061082557600080fd5b600160a060020a038316600090815260056020526040902080548390811061084957fe5b906000526020600020015490505b92915050565b60603361086983610cc2565b600160a060020a03161461089b5760405160e560020a62461bcd02815260040161089290612093565b60405180910390fd5b6000828152600e6020908152604080832080548251818502810185019093528083529193909284015b8282101561096f5760008481526020908190208301805460408051601f600260001961010060018716150201909416939093049283018590048502810185019091528181529283018282801561095b5780601f106109305761010080835404028352916020019161095b565b820191906000526020600020905b81548152906001019060200180831161093e57829003601f168201915b5050505050815260200190600101906108c4565b505050509050919050565b6109968383836020604051908101604052806000815250610edb565b505050565b60006109a5610637565b82106109b057600080fd5b60078054839081106109be57fe5b90600052602060002001549050919050565b6109d8611789565b336109e283610cc2565b600160a060020a031614610a0b5760405160e560020a62461bcd028152600401610892906120a3565b600d805483908110610a1957fe5b906000526020600020906007020160e0604051908101604052908160008201548152602001600182018054600181600116156101000203166002900480601f016020809104026020016040519081016040528092919081815260200182805460018160011615610100020316600290048015610ad65780601f10610aab57610100808354040283529160200191610ad6565b820191906000526020600020905b815481529060010190602001808311610ab957829003601f168201915b5050509183525050600282810180546040805160206001841615610100026000190190931694909404601f81018390048302850183019091528084529381019390830182828015610b685780601f10610b3d57610100808354040283529160200191610b68565b820191906000526020600020905b815481529060010190602001808311610b4b57829003601f168201915b505050505081526020016003820154815260200160048201548152602001600582018054600181600116156101000203166002900480601f016020809104026020016040519081016040528092919081815260200182805460018160011615610100020316600290048015610c1e5780601f10610bf357610100808354040283529160200191610c1e565b820191906000526020600020905b815481529060010190602001808311610c0157829003601f168201915b505050918352505060068201805460408051602060026001851615610100026000190190941693909304601f8101849004840282018401909252818152938201939291830182828015610cb25780601f10610c8757610100808354040283529160200191610cb2565b820191906000526020600020905b815481529060010190602001808311610c9557829003601f168201915b5050505050815250509050919050565b600081815260016020526040812054600160a060020a031680151561085757600080fd5b33610cf083610cc2565b600160a060020a031614610d195760405160e560020a62461bcd02815260040161089290612093565b6000828152600e602090815260409091208251610996928401906117c7565b6000600160a060020a0382161515610d4f57600080fd5b50600160a060020a031660009081526003602052604090205490565b610d73610de4565b1515610d7e57600080fd5b600c54604051600091600160a060020a0316907f8be0079c531659141344cd1fd0a4f28419497f9722a3daafe3b4186f6b6457e0908390a3600c805473ffffffffffffffffffffffffffffffffffffffff19169055565b600c54600160a060020a031690565b600c54600160a060020a0316331490565b600a8054604080516020601f60026000196101006001881615020190951694909404938401819004810282018101909252828152606093909290918301828280156105445780601f1061051957610100808354040283529160200191610544565b600160a060020a038216331415610e6c57600080fd5b336000818152600460209081526040808320600160a060020a038716808552925291829020805460ff191685151517905590519091907f17307eab39ab6107e8899845ad3d59bd9653f200f220920489ca2b5937696c3190610ecf908590612074565b60405180910390a35050565b610ee6848484610781565b610ef2848484846113c3565b1515610efd57600080fd5b50505050565b6060610f0e82611139565b1515610f1957600080fd5b6000828152600b602090815260409182902080548351601f600260001961010060018616150201909316929092049182018490048402810184019094528084529091830182828015610fac5780601f10610f8157610100808354040283529160200191610fac565b820191906000526020600020905b815481529060010190602001808311610f8f57829003601f168201915b50505050509050919050565b33610fc287610cc2565b600160a060020a031614610feb5760405160e560020a62461bcd02815260040161089290612093565b84600d87815481101515610ffb57fe5b9060005260206000209060070201600101908051906020019061101f92919061170b565b5083600d8781548110151561103057fe5b9060005260206000209060070201600201908051906020019061105492919061170b565b5082600d8781548110151561106557fe5b90600052602060002090600702016003018190555081600d8781548110151561108a57fe5b906000526020600020906007020160050190805190602001906110ae92919061170b565b5080600d878154811015156110bf57fe5b906000526020600020906007020160060190805190602001906110e392919061170b565b50505050505050565b600160a060020a03918216600090815260046020908152604080832093909416825291909152205460ff1690565b611122610de4565b151561112d57600080fd5b611136816114d4565b50565b600090815260016020526040902054600160a060020a0316151590565b6111608282611552565b600780546000838152600860205260408120829055600182018355919091527fa66cc928b5edb82af9bd49922954155ab7b0942694bea4ce44661d9a8736c688015550565b6000806111b183610cc2565b905080600160a060020a031684600160a060020a031614806111ec575083600160a060020a03166111e18461054f565b600160a060020a0316145b806111fc57506111fc81856110ec565b949350505050565b81600160a060020a031661121782610cc2565b600160a060020a03161461122a57600080fd5b600081815260026020526040902054600160a060020a03161561077d576000908152600260205260409020805473ffffffffffffffffffffffffffffffffffffffff1916905550565b600080600061128285856115ad565b600084815260066020908152604080832054600160a060020a03891684526005909252909120549093506112bd90600163ffffffff61164316565b600160a060020a0386166000908152600560205260409020805491935090839081106112e557fe5b90600052602060002001549050806005600087600160a060020a0316600160a060020a031681526020019081526020016000208481548110151561132557fe5b6000918252602080832090910192909255600160a060020a038716815260059091526040902080549061135c906000198301611820565b50600093845260066020526040808520859055908452909220555050565b6000611386838361165a565b50600160a060020a039091166000908152600560209081526040808320805460018101825590845282842081018590559383526006909152902055565b6000806113d885600160a060020a03166116ea565b15156113e757600191506114cb565b6040517f150b7a02000000000000000000000000000000000000000000000000000000008152600160a060020a0386169063150b7a02906114329033908a908990899060040161201f565b602060405180830381600087803b15801561144c57600080fd5b505af1158015611460573d6000803e3d6000fd5b505050506040513d601f19601f820116820180604052506114849190810190611c5f565b7bffffffffffffffffffffffffffffffffffffffffffffffffffffffff1981167f150b7a020000000000000000000000000000000000000000000000000000000014925090505b50949350505050565b600160a060020a03811615156114e957600080fd5b600c54604051600160a060020a038084169216907f8be0079c531659141344cd1fd0a4f28419497f9722a3daafe3b4186f6b6457e090600090a3600c805473ffffffffffffffffffffffffffffffffffffffff1916600160a060020a0392909216919091179055565b600160a060020a038216151561156757600080fd5b611571828261137a565b6040518190600160a060020a038416906000907fddf252ad1be2c89b69c2b068fc378daa952ba7f163c4a11628f55a4df523b3ef908290a45050565b81600160a060020a03166115c082610cc2565b600160a060020a0316146115d357600080fd5b600160a060020a0382166000908152600360205260409020546115fd90600163ffffffff61164316565b600160a060020a03909216600090815260036020908152604080832094909455918152600190915220805473ffffffffffffffffffffffffffffffffffffffff19169055565b6000808383111561165357600080fd5b5050900390565b600081815260016020526040902054600160a060020a03161561167c57600080fd5b6000818152600160208181526040808420805473ffffffffffffffffffffffffffffffffffffffff1916600160a060020a03881690811790915584526003909152909120546116ca916116f2565b600160a060020a0390921660009081526003602052604090209190915550565b6000903b1190565b60008282018381101561170457600080fd5b9392505050565b828054600181600116156101000203166002900490600052602060002090601f016020900481019282601f1061174c57805160ff1916838001178555611779565b82800160010185558215611779579182015b8281111561177957825182559160200191906001019061175e565b50611785929150611840565b5090565b60e060405190810160405280600081526020016060815260200160608152602001600081526020016000815260200160608152602001606081525090565b828054828255906000526020600020908101928215611814579160200282015b82811115611814578251805161180491849160209091019061170b565b50916020019190600101906117e7565b5061178592915061185a565b815481835581811115610996576000838152602090206109969181019083015b61054c91905b808211156117855760008155600101611846565b61054c91905b80821115611785576000611874828261187d565b50600101611860565b50805460018160011615610100020316600290046000825580601f106118a35750611136565b601f0160209004906000526020600020908101906111369190611840565b6000611704823561214c565b6000601f820183136118de57600080fd5b81356118f16118ec826120f9565b6120d2565b81815260209384019390925082018360005b8381101561192f5781358601611919888261195d565b8452506020928301929190910190600101611903565b5050505092915050565b60006117048235612158565b6000611704823561215d565b6000611704825161215d565b6000601f8201831361196e57600080fd5b813561197c6118ec8261211a565b9150808252602083016020830185838301111561199857600080fd5b6119a383828461217f565b50505092915050565b600060e082840312156119be57600080fd5b6119c860e06120d2565b905060006119d68484611ab7565b825250602082013567ffffffffffffffff8111156119f357600080fd5b6119ff8482850161195d565b602083015250604082013567ffffffffffffffff811115611a1f57600080fd5b611a2b8482850161195d565b6040830152506060611a3f84828501611ab7565b6060830152506080611a5384828501611ab7565b60808301525060a082013567ffffffffffffffff811115611a7357600080fd5b611a7f8482850161195d565b60a08301525060c082013567ffffffffffffffff811115611a9f57600080fd5b611aab8482850161195d565b60c08301525092915050565b6000611704823561054c565b600060208284031215611ad557600080fd5b60006111fc84846118c1565b60008060408385031215611af457600080fd5b6000611b0085856118c1565b9250506020611b11858286016118c1565b9150509250929050565b600080600060608486031215611b3057600080fd5b6000611b3c86866118c1565b9350506020611b4d868287016118c1565b9250506040611b5e86828701611ab7565b9150509250925092565b60008060008060808587031215611b7e57600080fd5b6000611b8a87876118c1565b9450506020611b9b878288016118c1565b9350506040611bac87828801611ab7565b925050606085013567ffffffffffffffff811115611bc957600080fd5b611bd58782880161195d565b91505092959194509250565b60008060408385031215611bf457600080fd5b6000611c0085856118c1565b9250506020611b1185828601611939565b60008060408385031215611c2457600080fd5b6000611c3085856118c1565b9250506020611b1185828601611ab7565b600060208284031215611c5357600080fd5b60006111fc8484611945565b600060208284031215611c7157600080fd5b60006111fc8484611951565b600060208284031215611c8f57600080fd5b813567ffffffffffffffff811115611ca657600080fd5b6111fc848285016119ac565b600060208284031215611cc457600080fd5b60006111fc8484611ab7565b60008060408385031215611ce357600080fd5b6000611cef8585611ab7565b925050602083013567ffffffffffffffff811115611d0c57600080fd5b611b11858286016118cd565b60008060008060008060c08789031215611d3157600080fd5b6000611d3d8989611ab7565b965050602087013567ffffffffffffffff811115611d5a57600080fd5b611d6689828a0161195d565b955050604087013567ffffffffffffffff811115611d8357600080fd5b611d8f89828a0161195d565b9450506060611da089828a01611ab7565b935050608087013567ffffffffffffffff811115611dbd57600080fd5b611dc989828a0161195d565b92505060a087013567ffffffffffffffff811115611de657600080fd5b611df289828a0161195d565b9150509295509295509295565b611e088161214c565b82525050565b6000611e1982612148565b80845260208401935083602082028501611e3285612142565b60005b84811015611e69578383038852611e4d838351611e7e565b9250611e5882612142565b602098909801979150600101611e35565b50909695505050505050565b611e0881612158565b6000611e8982612148565b808452611e9d81602086016020860161218b565b611ea6816121b7565b9093016020019392505050565b603081527f4365727469666963617465732063616e206f6e6c79206265207570646174656460208201527f206279207468656972206f776e65727300000000000000000000000000000000604082015260600190565b602d81527f4365727469666963617465732063616e206f6e6c79206265207265616420627960208201527f207468656972206f776e65727300000000000000000000000000000000000000604082015260600190565b805160009060e0840190611f738582612008565b5060208301518482036020860152611f8b8282611e7e565b91505060408301518482036040860152611fa58282611e7e565b9150506060830151611fba6060860182612008565b506080830151611fcd6080860182612008565b5060a083015184820360a0860152611fe58282611e7e565b91505060c083015184820360c0860152611fff8282611e7e565b95945050505050565b611e088161054c565b602081016108578284611dff565b6080810161202d8287611dff565b61203a6020830186611dff565b6120476040830185612008565b81810360608301526120598184611e7e565b9695505050505050565b602080825281016117048184611e0e565b602081016108578284611e75565b602080825281016117048184611e7e565b6020808252810161085781611eb3565b6020808252810161085781611f09565b602080825281016117048184611f5f565b602081016108578284612008565b60405181810167ffffffffffffffff811182821017156120f157600080fd5b604052919050565b600067ffffffffffffffff82111561211057600080fd5b5060209081020190565b600067ffffffffffffffff82111561213157600080fd5b506020601f91909101601f19160190565b60200190565b5190565b600160a060020a031690565b151590565b7bffffffffffffffffffffffffffffffffffffffffffffffffffffffff191690565b82818337506000910152565b60005b838110156121a657818101518382015260200161218e565b83811115610efd5750506000910152565b601f01601f1916905600a265627a7a72305820d6263078df0c64653309332c7533a32d6075a9e9a06b025e89a7a2da2cc47a426c6578706572696d656e74616cf50037",
  "source": "pragma solidity 0.4.25;\npragma experimental ABIEncoderV2;\n\nimport \"openzeppelin-solidity/contracts/token/ERC721/ERC721Full.sol\";\nimport \"openzeppelin-solidity/contracts/ownership/Ownable.sol\";\n\n\n/**\n * @title Certificate of Ownership\n */\n/* TODO: Update this contract to Solidity 0.5.0 */\ncontract COO is ERC721Full, Ownable {\n    constructor() public ERC721Full(\n        \"Certificate Of Ownership\",\n        \"COO\"\n    ) {\n    }\n\n    /**\n     * Our certificates are defined with the following structure\n     */\n    struct Certificate {\n        uint256 assetId;\n        string name;\n        string label;\n        uint256 price;\n        uint256 timestamp;\n        string factomEntryHash;\n        string anotherEncryptionKey;\n    }\n\n    /**\n     * We store all our certificates here\n     */\n    Certificate[] private certificates;\n\n    /**\n     * Certificates data are stored here\n     */\n    mapping (uint256 => string[]) private certificatesData;\n\n    /**\n     * @dev Creates a new certificate and links it to the sender\n     * @param newCertificate The new certificate to create\n     */\n    function createCertificate(\n        Certificate newCertificate\n    ) public {\n        uint256 certificateId = certificates.push(\n            Certificate({\n                assetId: newCertificate.assetId,\n                name: newCertificate.name,\n                label: newCertificate.label,\n                price: newCertificate.price,\n                timestamp: newCertificate.timestamp,\n                factomEntryHash: newCertificate.factomEntryHash,\n                anotherEncryptionKey: newCertificate.anotherEncryptionKey\n            })\n        ) - 1;\n\n        _mint(msg.sender, certificateId);\n    }\n\n    /**\n     * @dev Updates the information of a certificate. Can only be called by the certificate owner.\n     * @param certificateId The id of the certificate to update\n     * @param name The new name of the asset\n     * @param label The new label of the asset\n     * @param price The new price of the asset\n     * @param factomEntryHash The new factom entry hash of the asset\n     * @param anotherEncryptionKey Another new encryption key\n     */\n    function updateCertificate(\n        uint256 certificateId,\n        string name,\n        string label,\n        uint256 price,\n        string factomEntryHash,\n        string anotherEncryptionKey\n    ) public {\n        require(ownerOf(certificateId) == msg.sender, \"Certificates can only be updated by their owners\");\n\n        certificates[certificateId].name = name;\n        certificates[certificateId].label = label;\n        certificates[certificateId].price = price;\n        certificates[certificateId].factomEntryHash = factomEntryHash;\n        certificates[certificateId].anotherEncryptionKey = anotherEncryptionKey;\n    }\n\n    /**\n     * @dev Gets a certificate and the related information. Can only be called by the certificate owner.\n     * @param certificateId The id of a certificate\n     * @return The required certificate\n     */\n    function getCertificate(\n        uint256 certificateId\n    ) public view returns (\n        Certificate\n    ) {\n        require(ownerOf(certificateId) == msg.sender, \"Certificates can only be read by their owners\");\n\n        return certificates[certificateId];\n    }\n\n    /**\n     * @dev Gets the data related to a certificate. Can only be called by the certificate owner.\n     * @param certificateId The id of a certificate\n     * @return An array of data hashes\n     */\n    function getCertificateData(\n        uint256 certificateId\n    ) public view returns (\n        string[]\n    ) {\n        require(ownerOf(certificateId) == msg.sender, \"Certificates can only be updated by their owners\");\n\n        return certificatesData[certificateId];\n    }\n\n    /**\n     * @dev Updates the data of a certificate. Can only be called by the certificate owner.\n     * @param data The new data (as an array of hashes)\n     */\n    function updateCertificateData(\n        uint256 certificateId,\n        string[] data\n    ) public {\n        require(ownerOf(certificateId) == msg.sender, \"Certificates can only be updated by their owners\");\n\n        certificatesData[certificateId] = data;\n    }\n}\n",
  "sourcePath": "/Users/clement/Documents/Dev/herc/COO/COO/contracts/COO.sol",
  "compiler": {
    "name": "solc",
    "version": "0.4.25+commit.59dbf8f1.Emscripten.clang"
  },
  "schemaVersion": "3.0.0-beta.2",
  "updatedAt": "2018-12-04T17:31:18.832Z",
  "devdoc": {
    "methods": {
      "approve(address,uint256)": {
        "details": "Approves another address to transfer the given token ID The zero address indicates there is no approved address. There can only be one approved address per token at a given time. Can only be called by the token owner or an approved operator.",
        "params": {
          "to": "address to be approved for the given token ID",
          "tokenId": "uint256 ID of the token to be approved"
        }
      },
      "balanceOf(address)": {
        "details": "Gets the balance of the specified address",
        "params": {
          "owner": "address to query the balance of"
        },
        "return": "uint256 representing the amount owned by the passed address"
      },
      "createCertificate((uint256,string,string,uint256,uint256,string,string))": {
        "details": "Creates a new certificate and links it to the sender",
        "params": {
          "newCertificate": "The new certificate to create"
        }
      },
      "getApproved(uint256)": {
        "details": "Gets the approved address for a token ID, or zero if no address set Reverts if the token ID does not exist.",
        "params": {
          "tokenId": "uint256 ID of the token to query the approval of"
        },
        "return": "address currently approved for the given token ID"
      },
      "getCertificate(uint256)": {
        "details": "Gets a certificate and the related information. Can only be called by the certificate owner.",
        "params": {
          "certificateId": "The id of a certificate"
        },
        "return": "The required certificate"
      },
      "getCertificateData(uint256)": {
        "details": "Gets the data related to a certificate. Can only be called by the certificate owner.",
        "params": {
          "certificateId": "The id of a certificate"
        },
        "return": "An array of data hashes"
      },
      "isApprovedForAll(address,address)": {
        "details": "Tells whether an operator is approved by a given owner",
        "params": {
          "operator": "operator address which you want to query the approval of",
          "owner": "owner address which you want to query the approval of"
        },
        "return": "bool whether the given operator is approved by the given owner"
      },
      "isOwner()": {
        "return": "true if `msg.sender` is the owner of the contract."
      },
      "name()": {
        "details": "Gets the token name",
        "return": "string representing the token name"
      },
      "owner()": {
        "return": "the address of the owner."
      },
      "ownerOf(uint256)": {
        "details": "Gets the owner of the specified token ID",
        "params": {
          "tokenId": "uint256 ID of the token to query the owner of"
        },
        "return": "owner address currently marked as the owner of the given token ID"
      },
      "renounceOwnership()": {
        "details": "Allows the current owner to relinquish control of the contract."
      },
      "safeTransferFrom(address,address,uint256)": {
        "details": "Safely transfers the ownership of a given token ID to another address If the target address is a contract, it must implement `onERC721Received`, which is called upon a safe transfer, and return the magic value `bytes4(keccak256(\"onERC721Received(address,address,uint256,bytes)\"))`; otherwise, the transfer is reverted.   * Requires the msg sender to be the owner, approved, or operator",
        "params": {
          "from": "current owner of the token",
          "to": "address to receive the ownership of the given token ID",
          "tokenId": "uint256 ID of the token to be transferred"
        }
      },
      "safeTransferFrom(address,address,uint256,bytes)": {
        "details": "Safely transfers the ownership of a given token ID to another address If the target address is a contract, it must implement `onERC721Received`, which is called upon a safe transfer, and return the magic value `bytes4(keccak256(\"onERC721Received(address,address,uint256,bytes)\"))`; otherwise, the transfer is reverted. Requires the msg sender to be the owner, approved, or operator",
        "params": {
          "_data": "bytes data to send along with a safe transfer check",
          "from": "current owner of the token",
          "to": "address to receive the ownership of the given token ID",
          "tokenId": "uint256 ID of the token to be transferred"
        }
      },
      "setApprovalForAll(address,bool)": {
        "details": "Sets or unsets the approval of a given operator An operator is allowed to transfer all tokens of the sender on their behalf",
        "params": {
          "approved": "representing the status of the approval to be set",
          "to": "operator address to set the approval"
        }
      },
      "supportsInterface(bytes4)": {
        "details": "implement supportsInterface(bytes4) using a lookup table"
      },
      "symbol()": {
        "details": "Gets the token symbol",
        "return": "string representing the token symbol"
      },
      "tokenByIndex(uint256)": {
        "details": "Gets the token ID at a given index of all the tokens in this contract Reverts if the index is greater or equal to the total number of tokens",
        "params": {
          "index": "uint256 representing the index to be accessed of the tokens list"
        },
        "return": "uint256 token ID at the given index of the tokens list"
      },
      "tokenOfOwnerByIndex(address,uint256)": {
        "details": "Gets the token ID at a given index of the tokens list of the requested owner",
        "params": {
          "index": "uint256 representing the index to be accessed of the requested tokens list",
          "owner": "address owning the tokens list to be accessed"
        },
        "return": "uint256 token ID at the given index of the tokens list owned by the requested address"
      },
      "tokenURI(uint256)": {
        "details": "Returns an URI for a given token ID Throws if the token ID does not exist. May return an empty string.",
        "params": {
          "tokenId": "uint256 ID of the token to query"
        }
      },
      "totalSupply()": {
        "details": "Gets the total amount of tokens stored by the contract",
        "return": "uint256 representing the total amount of tokens"
      },
      "transferFrom(address,address,uint256)": {
        "details": "Transfers the ownership of a given token ID to another address Usage of this method is discouraged, use `safeTransferFrom` whenever possible Requires the msg sender to be the owner, approved, or operator",
        "params": {
          "from": "current owner of the token",
          "to": "address to receive the ownership of the given token ID",
          "tokenId": "uint256 ID of the token to be transferred"
        }
      },
      "transferOwnership(address)": {
        "details": "Allows the current owner to transfer control of the contract to a newOwner.",
        "params": {
          "newOwner": "The address to transfer ownership to."
        }
      },
      "updateCertificate(uint256,string,string,uint256,string,string)": {
        "details": "Updates the information of a certificate. Can only be called by the certificate owner.",
        "params": {
          "anotherEncryptionKey": "Another new encryption key",
          "certificateId": "The id of the certificate to update",
          "factomEntryHash": "The new factom entry hash of the asset",
          "label": "The new label of the asset",
          "name": "The new name of the asset",
          "price": "The new price of the asset"
        }
      },
      "updateCertificateData(uint256,string[])": {
        "details": "Updates the data of a certificate. Can only be called by the certificate owner.",
        "params": {
          "data": "The new data (as an array of hashes)"
        }
      }
    },
    "title": "Certificate of Ownership"
  },
  "userdoc": {
    "methods": {
      "renounceOwnership()": {
        "notice": "Renouncing to ownership will leave the contract without an owner. It will not be possible to call the functions with the `onlyOwner` modifier anymore."
      }
    }
  }
}